:020000040800F2
:10000000A0390020E5020008ED020008EF02000818
:10001000F1020008F3020008F502000800000000E9
:10002000000000000000000000000000F9010008CE
:10003000F90200080000000081020008D102000857
:10004000FF020008FF020008FF020008FF0200088C
:10005000FF020008FF020008FF020008FF0200087C
:10006000FF020008FF020008FF020008FF0200086C
:10007000FF020008FF020008FF020008FF0200085C
:10008000FF020008FF020008FF020008FF0200084C
:10009000FF020008FF020008FF020008FF0200083C
:1000A000FF020008FF020008FF020008FF0200082C
:1000B000FF020008FF020008FF020008FF0200081C
:1000C000FF020008FF020008FF020008FF0200080C
:1000D000FF020008FF020008FF020008FF020008FC
:1000E000FF020008FF020008FF020008FF020008EC
:1000F000FF02000800F002F800F03AF80AA090E8C9
:10010000000C82448344AAF10107DA4501D100F0D2
:100110002FF8AFF2090EBAE80F0013F0010F18BF65
:10012000FB1A43F0010318479C100000BC100000AC
:10013000103A24BF78C878C1FAD8520724BF30C813
:1001400030C144BF04680C607047000000230024E5
:1001500000250026103A28BF78C1FBD8520728BFD7
:1001600030C148BF0B6070471FB51FBD10B510BD33
:1001700000F0DFF81146FFF7F7FF00F075FA00F026
:10018000FDF803B4FFF7F2FF03BC00F001F9000033
:1001900080F309887047EFF309807047684680F361
:1001A000098804480078C00714BF0220032080F3A8
:1001B00014887047A8110008DFF818C0EFF3058312
:1001C0001B0618BF6047EFF31483DB0708BF6047C7
:1001D00000DF7047BD060008DFF818C0EFF30583A5
:1001E0001B0618BF6047EFF31483DB0708BF6047A7
:1001F00000DF704701090008EFF30980816911F8F9
:10020000021C39BB90E80F10E047EFF3098C194B43
:1002100093E80600914218D059B10CB44FF0010395
:1002200081F826302CE9F00FC1F82CC000F0DEFD7B
:100230000CBC1A60D2F82CC0BCE8F00F92F8263043
:100240008CF309881BB192F82500CCF800006FF000
:10025000020E704710B5084A1268914209D8074C3F
:1002600054F8214090E80F10A047EFF3098C8CE878
:100270000F0010BD18000020A0030008A003000814
:1002800000F0CCFC114B93E8060091421BD00CB45B
:100290004FF0000381F82630EFF3098C2CE9F00FC2
:1002A000C1F82CC000F0A2FD0CBC1A60D2F82CC022
:1002B000BCE8F00F8CF3098892F826301BB192F855
:1002C0002530CCF800306FF0020E70471800002087
:1002D00000F05CFED6E7000000F0EEF900F056FEFC
:1002E000D0E700000948804709480047FEE7FEE7DD
:1002F000FEE7FEE7FEE7FEE7FEE7FEE7FEE7FEE7D6
:1003000004480549054A064B7047000021050008CE
:10031000F5000008A0330020A0390020A0350020FF
:10032000A0350020004870474033002070477047D8
:1003300070477546FFF7F6FFAE460500694653461F
:1003400020F00700854618B020B5FFF7D9FFBDE8BB
:1003500020404FF000064FF000074FF000084FF02C
:10036000000B21F00701AC46ACE8C009ACE8C009BD
:10037000ACE8C009ACE8C0098D46704710B504462A
:10038000AFF300802046BDE81040FFF7FABE000042
:1003900001491820ABBEFEE72600020070470000AE
:1003A000000000004FF47A71B0FBF1F2521E4FF0E2
:1003B000E0235A6100229A6105221A6100BF70474A
:1003C00002480068C0F34000704700000038024057
:1003D00001490860704700000000002038B500BFE8
:1003E0004B48006840F004004949086000BF012004
:1003F000096821F001010143454A116000BF00076F
:10040000444909680143434A1160114609680140A3
:10041000009100BF00BF40143F49096821F4C0515A
:1004200001433D4A116000BF00BF00BF3A48406829
:10043000C0F300100028F8D1FFF7C2FF70B900BF69
:1004400034482438006840F00100324924390860FB
:1004500000BF00BFFFF7B4FF0128FBD100204FF41D
:1004600000210A012B4B1C3B1B6823F47D0440EA4E
:10047000010313431C43274B1C3B1C6000BF00BF00
:1004800024482438006840F08070224924390860EC
:1004900000BF00BF00BF1F4824380068C0F34060A1
:1004A0000028F7D000201B491C39096821F0F00111
:1004B0000143184A1C3A116000BF03201146096825
:1004C00021F003010143116000BF00BF00BF1148CC
:1004D0001C38006800F00C000C28F7D100200D49F2
:1004E0001C39096821F4E06101430A4A1C3A116091
:1004F00000BF00BF1146096821F46051014311603B
:1005000000BF0648FFF74EFF0448FFF761FF38BD04
:10051000003C024024380240007000400048E801DE
:100520001448006840F4807012490860114808308F
:100530000068114908400F49083108600D480068FB
:100540000E4908400B4908600846006820F48020E6
:10055000086008480830006820F47D00054908312B
:1005600008600020091D08604FF000600449086021
:1005700070470000003802400CC0FF88FEFFFEEE0E
:1005800008ED00E010B5002A06DA22F00042D21D84
:1005900022F00703102203E0D21C22F003030C22F6
:1005A00013B19C188C4201D9012010BD02440144B2
:1005B0008360C0E90021C91AD018884202D81060AF
:1005C0000246F9E70020106010BD000010B5044697
:1005D00000F064FD002805D04FF6FF71DFF808C079
:1005E000206800DF10BD0000B50B000810B5044600
:1005F00000F054FD002803D0DFF808C0206800DFB9
:1006000010BD0000D10A000808480068C0010BD5E1
:1006100007480068C00707D00548803800680028F0
:1006200002DA04490120087070470000FCED00E088
:10063000800E00E0240000204FF06042D36F002BBA
:10064000FCD0436BD367D36F002BFCD0C07840EA5B
:100650000120A2F87C0070474FF06041CA6F002A69
:10066000FCD081F87C007047FFF7B8FEFFF796FDDD
:10067000002211460248DFF80CC000DF00BFFEE791
:10068000AD100008390E000800BFFEE700BFFEE70E
:10069000074801684FF0E020416100218161072196
:1006A00001610448016841F07F41016040177047D3
:1006B000A411000820ED00E07047704750E8001FCB
:1006C00031B10B6840E80032002AF7D10846704784
:1006D000BFF32F8FFAE7000070B50D46002812D047
:1006E0004FF6FF71084C884204D22268014610463A
:1006F00000F0D2FA20684570044800F011F9BDE816
:10070000704000F085BB70BD180000201033002041
:100710000F4810B50D4942680E480B6800689342B7
:1007200004D00A60CB88421E1A448A808A8880B22C
:1007300082420AD100200860054800F0F1F8014625
:10074000BDE81040024800F0CBBA10BD30000020D8
:10075000103300202000002070B51A4DE8680028F2
:100760002ED0A88A401EA882002623E0A06838B1B7
:1007700061684160606810B1A16881606660A660D0
:1007800010482146183800F0ABFAA08AA882607899
:10079000042804D10C49E08A09880844A082012079
:1007A000607084F82500E068E860E06808B10561E1
:1007B000E6602661A88A002802D1EC68002CD5D119
:1007C00070BD0000283300202000002070B5040018
:1007D0000FD00D4DA17801262868827891420CD95E
:1007E00000F09AFA286846702046BDE8704000F094
:1007F0000FBB064800F094F8F7E766702146BDE8A5
:100800007040024800F06CBA18000020103300203D
:100810000321FFF761BF000010B50446008B0843B9
:1008200020836278618B062A16D0052A17D10842E8
:1008300015D001EA0002628388432083204600F03D
:100840008FFA01206070022084F825002146BDE85F
:100850001040034800F044BA31EA0002ECD010BD69
:1008600010330020024670B5154800EB810050F8A7
:10087000044C002C22D0208B104320836178658BA0
:10088000062918D0052919D1284217D005EA0001F8
:100890006183A8432083204600F062FA208BA8439E
:1008A000208301206070022084F825002046BDE8E6
:1008B0007040FFF78BBF35EA0001EAD070BD000041
:1008C000AC24002070B503460C480D460468208B0C
:1008D00042B133EA000101D0062109E098432083A8
:1008E000022070BD10EA030101D06183F6E7052103
:1008F00063832846FFF7F0FE012070BD180000203A
:10090000814202D342688A4201D80120704750E8F0
:10091000002F0A6040E80012002AF8D1002070473A
:100920000146406842684A600B780022022B05D0DD
:10093000012B03D0032B01D04260704743680BB1F9
:10094000996042608260704770B504460020154689
:10095000207001226270A17084F824106060A06091
:10096000E06020612062A082E0822083608384F8BE
:10097000250084F82600208D18B90548FFF79EFE53
:10098000206329462046BDE8704000F00FB8000003
:10099000F807002003480021016003490988C1804D
:1009A0007047000030000020A011000810B5028D33
:1009B000920803D10F4A1288C2F38D02036B03EB36
:1009C0008202530700D5121F4FF0807342E90213D1
:1009D00000231C46B2F1400242F823405B1C0E2B60
:1009E000FAD3C3691362C2624163006B02490160BA
:1009F00010BD00009C110008A52E5AE22DE9F0411F
:100A0000044640680F464FF0000804F10C0620B180
:100A1000617802291DD0A089E8B3A089E1898842C4
:100A20004ED2208904EB8000C0F81070D6E85F0F2A
:100A3000401C81B2C6E8501F0028F7D12089401C15
:100A400080B22081E189884201D1A4F80880BDE804
:100A5000F081406800B1012060702046FFF760FF20
:100A600080F825802289054604EB8202C069414650
:100A7000C2F81000D6E85F0F401C82B2C6E8502FC3
:100A80000028F7D12089401C80B22081E289904261
:100A90000BD1218109E0FFE72046FFF741FF054622
:100AA000C0690421076085F8251001206870284678
:100AB00000F056F92946BDE8F041044800F010B9AD
:100AC000BDE8F0410320FFF7DFBD00001033002038
:100AD0002DE9F0470446408820B1344DA1682A68CA
:100AE000914202D0FF20BDE8F087401E0004000CB8
:100AF000608059D12968086AA04209D1E06808627B
:100B000008E0C268A24202D1E268C26002E0104678
:100B10000028F6D191F824000A6A06E053681BB158
:100B20009B78834200D91846D268002AF6D1887093
:100B3000DFF87C8061689146012741B32046FFF7CA
:100B4000EFFE0646052086F82500304600F008F93D
:100B50006780A660306AE06034622968D8F80400D3
:100B60008A788078824201D330460AE0104800F04B
:100B7000B7F831460E4800F0B3F828684770777030
:100B800010E0FFF723FE296881F825900CE0D8F8E3
:100B900004108A782968824206D9054800F0A0F836
:100BA000286847700020ECE700209CE71800002030
:100BB0001033002070B5184D0E4604464188286851
:100BC00039B1A168814209D16088401C6080002051
:100BD00070BDA060016AE1600462F5E776B18A78D1
:100BE0008078824203D28870A06800F09FF8606825
:100BF00030B12046296800F073F808E0012070BD8C
:100C0000286860602968002048602868846009219D
:100C10003046FFF761FDF1E71800002070B51B4872
:100C2000012102685170006800F076F8184D6C7868
:100C300018E000BF05EBC40148680278EAB1012A58
:100C400020D000F0B9F8E878641C844200D1002478
:100C50000F48801CD0E84F1F491EC9B2C0E8421F90
:100C6000002AF7D1A8780028E4D16C700948FFF772
:100C700057FEBDE8704000F0CBB8098989B2FFF794
:100C8000CBFDE0E78968FFF7B9FEDCE7180000203C
:100C90002824002010330020104A10B5D368ABB1CF
:100CA00013469B8A03E08CB12246A48A2344D4686D
:100CB0008B42F8D3C460D0600261C46804B1206183
:100CC000591A8182908A401A908210BD0024C46013
:100CD000D060C91A02619182848210BD283300203D
:100CE00030B502780023022A03D0012A01D0032A5A
:100CF00000D101238C7800E01046426812B195784B
:100D0000A542F9D24A6041601BB102B1916088608E
:100D100030BD0020FBE7000003494A684260002222
:100D200082604860704700001033002010B583686F
:100D300004462BB9607801280ED1084B03E09B686C
:100D400018780028FBD0204600F01EF82146BDE8A8
:100D500010401846FFF7C4BF10BD0000103300203C
:100D600010B5016900290ED0C268CA60C3680022AC
:100D70003BB18B8A848A23448B82C3681961C26029
:100D800000E08A82026110BD816839B142684A6020
:100D90004168002901D0806888607047054906E0F5
:100DA0004A68824202D14068486070471146002973
:100DB000F6D170471033002010B5416879B1FFF7C4
:100DC000AFFD0446FFF7CCFF01206070032084F8DC
:100DD00025002146BDE810400348FFF781BF418848
:100DE000491C418010BD00001033002006480068F7
:100DF000D0E90B10814203D300680449884202D035
:100E00000120FFF741BC704718000020A52E5AE2D0
:100E10000749022248604270064A1278002A05D02B
:100E200006C98A4202D0C078FFF716BC704700009E
:100E300018000020240000202DE9F04716468846BF
:100E40008146FFF7E1FB002004463E4A3E4902E0AE
:100E500042F82040401C0B889842F9D33B48382286
:100E600001883B48FFF78EFB3A48008880B240F08B
:100E70000042394801683948FFF784FB38480822A6
:100E8000018838480068FFF77DFB374FFF25374A58
:100E9000FD703C8500213846FFF756FD344804219B
:100EA0000170446033480170C46004618482F86A50
:100EB0002030FFF76DF93048314907600220787023
:100EC0002E48047044700978C170FFF763FD2D4807
:100ED000016841F47F0101600068290601EA0020F1
:100EE0002849C0431439B0FA80F00968C0F10800FD
:100EF000C1F30221814200DB481C2249091F0B6813
:100F00006FF08072824063F317020A60FFF7C0FB44
:100F10001D49002808600DDB00F1E02181F8005434
:100F200000F01F02012191404011800000F1E020FB
:100F3000C0F80011324641464846BDE8F04700235C
:100F400000F064B8AC24002098110008B411000827
:100F5000400000209C110008B8110008F80700208C
:100F6000BE11000810000020D83200208D060008B5
:100F700010330020283300201800002028240020EF
:100F8000BC11000820ED00E02C0000200C4810B53A
:100F90000268012151700068FFF7BEFEFFF7B8FB41
:100FA00008480168491C0160FFF7D6FB00F00EF805
:100FB0000548FFF7B5FCBDE81040FFF729BF00006A
:100FC00018000020200000201033002070B50D4CC8
:100FD0002068002815D0A0880B4E401EA0800AE093
:100FE000E888FFF76AFBA888A08028682060294667
:100FF0003068FFF785FCA088002802D12568002D05
:10100000EED170BD38000020100000202DE9F04125
:101010001E46174680460C4611F0FF0F00D14C1CAF
:101020001948FFF74BFB05002BD0200A2F632885BA
:10103000E1B242462846EE61FFF786FC01241348E0
:10104000134905E000EB840252F8042C22B1641C21
:101050000A889442F6D9002400EB8400E6B240F8F6
:10106000045C0C48EE70007818B101212846FFF7A7
:10107000E3FA2846FFF7AAFB0748006880F82560D6
:101080002046BDE8F081000040000020AC24002094
:101090009811000824000020180000200248006871
:1010A000002800D0C078704718000020DFF850C03A
:1010B00000DF1449086000231A4619461248DFF879
:1010C0004CC000DF1249086000231A461946114837
:1010D000DFF838C000DF1049086000BF0C48016825
:1010E0000220DFF838C000DF00224FF6FF71012038
:1010F000DFF82CC000DF1420DFF828C000DFEDE7A8
:101100009D10000804000020291100080D1000089F
:1011100008000020611100080C000020650800088C
:10112000C50800081108000800BF00224FF6FF7133
:101130000220DFF81CC000DF3C20DFF818C000DF11
:10114000054801680420DFF814C000DFEDE7000067
:10115000C5080008110800080C00002065080008F8
:1011600000BF00224FF6FF710420DFF81CC000DF33
:101170002820DFF818C000DF054801680120DFF8EB
:1011800014C000DFEDE70000C508000811080008E2
:10119000040000206508000823000000C8000001CA
:1011A00005000100FF700200000000001027000091
:1011B00000000000B4070000301C00001000000018
:1011C0004B000400E4110008000000204000000073
:1011D000300100082412000840000020603900009F
:1011E0004C01000868FF1F00000000000000000024
:1011F00000000000000000000000000000000000EF
:1012000000000000000000000000000000000000DE
:1012100000000000000000000000000000000000CE
:0412200000000000CA
:04000005080002E508
:00000001FF
