:020000040800F2
:100000007807002091010008990100089B01000871
:100010009D0100089F010008A101000800000000E8
:10002000000000000000000000000000A301000824
:10003000A501000800000000A7010008A9010008B0
:10004000AB010008AB010008AB010008AB010008E0
:10005000AB010008AB010008AB010008AB010008D0
:10006000AB010008AB010008AB010008AB010008C0
:10007000AB010008AB010008AB010008AB010008B0
:10008000AB010008AB010008AB010008AB010008A0
:10009000AB010008AB010008AB010008AB01000890
:1000A000AB010008AB010008AB010008AB01000880
:1000B000AB010008AB010008AB010008AB01000870
:1000C000AB010008AB010008AB010008AB01000860
:1000D000AB0100081D0A0008AB010008AB010008D5
:1000E000AB010008AB010008AB010008AB01000840
:1000F000AB01000800F002F800F03AF80AA090E81E
:10010000000C82448344AAF10107DA4501D100F0D2
:100110002FF8AFF2090EBAE80F0013F0010F18BF65
:10012000FB1A43F001031847D40C0000F40C000044
:10013000103A24BF78C878C1FAD8520724BF30C813
:1001400030C144BF04680C607047000000230024E5
:1001500000250026103A28BF78C1FBD8520728BFD7
:1001600030C148BF0B6070471FB51FBD10B510BD33
:1001700000F08CF81146FFF7F7FF00F0FFFC00F0ED
:10018000AAF803B4FFF7F2FF03BC00F0B1F80000D7
:100190000948804709480047FEE7FEE7FEE7FEE71B
:1001A000FEE7FEE7FEE7FEE7FEE7FEE70448054957
:1001B000054A064B70470000B9090008F500000821
:1001C00078010020780700207803002078030020C1
:1001D00030B505460B462A4613F8014B12F8010BC1
:1001E00008B1A042F8D01CB1002802D06D1CF1E784
:1001F000284630BD4FF000020429C0F0128010F0F4
:10020000030C00F01B80CCF1040CBCF1020F18BFF2
:1002100000F8012BA8BF20F8022BA1EB0C0100F085
:100220000DB85FEAC17C24BF00F8012B00F8012B58
:1002300048BF00F8012B70474FF0000200B513468D
:1002400094469646203922BFA0E80C50A0E80C50F6
:10025000B1F12001BFF4F7AF090728BFA0E80C50A7
:1002600048BF0CC05DF804EB890028BF40F8042BA0
:1002700008BF704748BF20F8022B11F0804F18BF0D
:1002800000F8012B7047704770477047754600F0C3
:100290002BF8AE4605006946534620F00700854618
:1002A00018B020B5FFF782FFBDE820404FF00006F0
:1002B0004FF000074FF000084FF0000B21F007014E
:1002C000AC46ACE8C009ACE8C009ACE8C009ACE891
:1002D000C0098D46704710B50446AFF30080204634
:1002E000BDE81040FFF74DBF0048704718010020DF
:1002F00001491820ABBEFEE726000200704770B52A
:1003000005460C464FF480712846FFF773FF002026
:10031000208070BD70B506460C4615462088401CEE
:100320000D490880A878002807DD284600F0F2FC77
:10033000218870542088401C208008A13046FFF797
:1003400047FF20B906A13046FFF742FF08B1002061
:1003500070BD0120FCE70000080000204F4B0000AA
:100360004552524F5200000030B50446002500BFF0
:100370002846691CCDB2205C0A28F9D129462046BE
:1003800000F0E4FB30BDF0B503460A46002400212E
:10039000106890FAA0F0B0FA80F47FE00125A54043
:1003A000106800EA0501002977D050681D6891FAAD
:1003B000A1F6B6FA86F677000326BE40B54391FA59
:1003C000A1F6B6FA86F6760000FA06F635431D6009
:1003D00000BF5068012802D05068022814D19068EC
:1003E0009D6891FAA1F6B6FA86F677000326BE401C
:1003F000B54391FAA1F6B6FA86F6760000FA06F64B
:1004000035439D6000BF00BF1069DD6891FAA1F619
:10041000B6FA86F677000326BE40B54391FAA1F6F8
:10042000B6FA86F6760000FA06F63543DD6000BFC0
:100430005068022831D191FAA1F0B0FA80F0082872
:1004400014D250691D6A91FAA1F6B6FA86F6B70081
:100450000F26BE40B54391FAA1F6B6FA86F6B6006D
:1004600000FA06F635431D6200BF16E050695D6A6A
:100470000E0A96FAA6F6B6FA86F6B7000F26BE4022
:10048000B5430E0A96FAA6F6B6FA86F6B60000FA54
:1004900006F635435D6200BF00BF641C1068E04093
:1004A00000287FF47BAF5068012802D050680228F2
:1004B00009D1D56810685E68864300FB05F73E43A6
:1004C0005E6000BF00BF0120F0BD4FF47A71B0FB49
:1004D000F1F2521E4FF0E0235A6100229A61052288
:1004E0001A6100BF704710B5044600F043F9206060
:1004F000206800F00BF96060606800F017F9A060F8
:10050000606800F025F9E06010BD00000248006856
:10051000C0F3400070470000003802400149086005
:1005200070470000000000202DE9FF4104460D4601
:1005300000270026204600F043F8002835D1E9685E
:100540006868084329690843A9690843E16849F2D2
:100550000C6291430843E060A868216921F440518E
:100560000143216100BF6869616921F44071014361
:10057000616100BF6846FFF7B6FF0E48844201D1B3
:10058000039E08E00C48844201D1029E03E00B4820
:10059000844200D1029E46B1286830B1012731461D
:1005A00020462B68AA6900F010F8384604B0BDE870
:1005B000F081000000380140004400400048004045
:1005C0000146C868C0F340307047F0B5B2F5004F3F
:1005D0004ED101EBC10404EB01145D00B4FBF5F452
:1005E0006425B4FBF5F4250101EBC10404EB01140F
:1005F0005E00B4FBF6F401EBC10606EB01165F00EA
:10060000B6FBF7F66427B6FBF7F606EBC60707EB73
:100610000616A4EB8604322606EBC4046426B4FB5B
:10062000F6F404F0F80405EB440501EBC10404EB17
:1006300001145E00B4FBF6F401EBC10606EB0116F3
:100640005F00B6FBF7F66427B6FBF7F606EBC607C6
:1006500007EB0616A4EB8604322606EBC4046426D8
:10066000B4FBF6F404F007042C44A4B284604CE01C
:1006700001EBC10404EB01149D00B4FBF5F401EBA4
:10068000C10505EB01159E00B5FBF6F56426B5FB2B
:10069000F6F505EBC50606EB0515A4EB850432253A
:1006A00005EB04146425B4FBF5F404F0F00401EB4D
:1006B000C10505EB01159E00B5FBF6F56426B5FBFB
:1006C000F6F504EB051501EBC10404EB01149E00E3
:1006D000B4FBF6F401EBC10606EB01169F00B6FB76
:1006E000F7F66427B6FBF7F606EBC60707EB061628
:1006F000A4EB8604322606EB04146426B4FBF6F45D
:1007000004F00F042C44A4B28460F0BD014600BF85
:100710000448006800F0F0000009034A125C21FA66
:1007200002F0704708380240E10D0008014600BFA2
:100730000548006800F4E060044A02EB10200278EB
:1007400021FA02F07047000008380240F10D00085D
:10075000014600BF0548006800F46050044A02EBFF
:10076000D020027821FA02F07047000008380240D9
:10077000F10D000810B5002400BF1D48006800F00E
:100780000C0030B1042816D0082816D00C281AD135
:1007900015E000BF1648001F006800F460404FF4E9
:1007A000604191FAA1F1B1FA81F1C840401C0121E8
:1007B0008140CC0319E00F4C17E00F4C15E000F01E
:1007C0001DF8044611E000BF0948001F006800F44E
:1007D00060404FF4604191FAA1F1B1FA81F1C84053
:1007E000401C01218140CC0300BF00BF204610BD4A
:1007F000083802400024F40000127A0010B50021ED
:10080000002200BF1748006800F4803002461AB189
:10081000B2F5803F04D101E0134903E0134901E040
:10082000114900BF00BF00BF0E48006800F47010FF
:100830004FF4701393FAA3F3B3FA83F3D8400C4B3D
:100840001B5C4B430748006800F440004FF4400431
:1008500094FAA4F4B4FA84F4E040401CB3FBF0F042
:1008600010BD0000083802400024F40000127A0095
:10087000D80D000838B500BF4B48006840F00400B0
:100880004949086000BF0120096821F001010143C6
:10089000454A116000BF0007444909680143434AC3
:1008A0001160114609680140009100BF00BF40146B
:1008B0003F49096821F4C05101433D4A116000BF1E
:1008C00000BF00BF3A484068C0F300100028F8D1CC
:1008D000FFF71CFE70B900BF34482438006840F0B0
:1008E000010032492439086000BF00BFFFF70EFE47
:1008F0000128FBD100204FF400210A012B4B1C3BA7
:100900001B6823F47D0440EA010313431C43274B77
:100910001C3B1C6000BF00BF24482438006840F026
:10092000807022492439086000BF00BF00BF1F4803
:1009300024380068C0F340600028F7D000201B492D
:100940001C39096821F0F0010143184A1C3A116072
:1009500000BF03201146096821F003010143116023
:1009600000BF00BF00BF11481C38006800F00C0039
:100970000C28F7D100200D491C39096821F4E061E9
:1009800001430A4A1C3A116000BF00BF11460968C2
:1009900021F460510143116000BF0648FFF795FD47
:1009A0000448FFF7BBFD38BD003C0240243802403C
:1009B000007000400048E8011448006840F480706E
:1009C00012490860114808300068114908400F4971
:1009D000083108600D4800680E4908400B4908605E
:1009E0000846006820F48020086008480830006845
:1009F00020F47D000549083108600020091D0860C9
:100A00004FF0006004490860704700000038024061
:100A10000CC0FF88FEFFFEEE08ED00E010B500BF41
:100A200007480068C0F3401040B100BF0448406868
:100A3000C4B200BF2146034800F0A8F910BD000071
:100A4000003801400C01002010B588B000F052F8C9
:100A500025200121002807DA0A07140E214A00F098
:100A60000F031B1FD45403E00A07130E1E4A13542E
:100A700000BF252000F01F02012191404209920091
:100A800002F1E022C2F8001100BF4FF48040174984
:100A900009680143154A1160114609680140009137
:100AA00000BF00BF4FF4E13001900020029006909B
:100AB0000490039007900C20059001A90C48FFF7C3
:100AC00033FD00BF0A48C06840F400500849C860C0
:100AD00000BF00BF0846C06840F02000C86000BFEB
:100AE00008B010BD18ED00E000E400E0203802403E
:100AF0000038014000B587B0012012490968014360
:100B0000104A1160114609680140009100BF00BF02
:100B10000220029000020190002004900120059024
:100B2000032003900720069001A90748FFF72BFC3C
:100B30004FF48060019001A90348FFF724FC07B03F
:100B400000BD00001C3802400000024010B5024603
:100B500000200DE000BF00BF074B1B68C3F3C013AC
:100B6000002BF8D0135C044C636000BF431CD8B268
:100B70008842EFDB10BD000000380140FFF77AFE2D
:100B8000FFF762FF434800F0D7F8012042490870A0
:100B90007FE041480078062879D2DFE800F00304BE
:100BA0001C345E7774E03DA0FFF7DEFB00BF394ADE
:100BB0003D493E48FFF7AEFB0028F8D13CA13B4839
:100BC000FFF706FB30B10220334908703649374839
:100BD000FFF795FB5CE037A0FFF7C6FB00BF2D4A8F
:100BE00031493248FFF796FB0028F8D130A12F4851
:100BF000FFF7EEFA30B10320274908702A492B4845
:100C0000FFF77DFB44E000BF2CA0FFF7ADFB00BF6A
:100C1000204A25492548FFF77DFB0028F8D124A16B
:100C20002248FFF7D5FA0028EED028A0FFF79CFB5A
:100C300000BF184A1C491D48FFF76CFB0028F8D17B
:100C400025A11A48FFF7C4FA30B1042012490870F0
:100C500015491648FFF753FB1AE022A0FFF784FB63
:100C600000BF0C4A10491148FFF754FB0028F8D187
:100C700025A10E48FFF7ACFA30B1052006490870EF
:100C800009490A48FFF73BFB02E000E000E000BF33
:100C900000BF7EE70C0100200400002041542B52CD
:100CA00053540D0A00000000060000200C00002034
:100CB0004F4B000041540D0A0000000041542B43EB
:100CC000574D4F44453A330D0A00000041542B4321
:100CD000574C41500D0A00003C796F7572207373B8
:100CE00069643E0041542B43574A41503A223C79B3
:100CF0006F75725F737369643E222C223C70737748
:100D00003E220D0A00000000434F4E4E454354451D
:100D10004400000000B50346184600F019F8012809
:100D200008D09878401E98701978481C1870D81C04
:100D3000405C00BD00BFFCE710B5044600202070F9
:100D40006070A0704FF48071E01CFFF753FA10BD83
:100D5000014608784A78801A03D048780A78801AC1
:100D600001D1012070470020FCE7014608784A784D
:100D7000801A8A78904205D048780A78801A8A7852
:100D8000904201D1012070470020FCE710B50346D6
:100D90000C461846FFF7E9FFE8B15878072801DD4F
:100DA000002058701878072801DD00201870597845
:100DB000481C5870D81C445418785978884204DA72
:100DC00058781978401A987005E05878C0F10800F2
:100DD0001978401A987010BD030406080C101820EA
:100DE00030000000000000000001020304060708B4
:100DF0000900000000010203040000001C0E0008AE
:100E0000000000200C00000030010008280E00083F
:100E10000C0000206C0700004C01000868FF1F0058
:080E20000000000000000000CA
:04000005080001915D
:00000001FF
